:020000040800F2
:100000002004002049010008F5030008D30300087C
:10001000F103000823020008950A00080000000010
:100020000000000000000000000000000D050008B6
:100030002702000800000000F70300085906000826
:100040006301000863010008630100086301000800
:1000500063010008630100083D0200086301000815
:1000600063010008630100086301000863010008E0
:1000700063010008630100086301000863010008D0
:100080006301000863010008BD0100086301000866
:1000900063010008630100086301000863010008B0
:1000A00063010008630100086301000863010008A0
:1000B0006301000863010008630100086301000890
:1000C0006301000863010008630100086301000880
:1000D0006301000863010008630100086301000870
:1000E0005D02000863010008630100086301000865
:1000F0006301000863010008630100086301000850
:10010000630100086301000863010008630100083F
:10011000630100086301000863010008630100082F
:10012000630100086301000863010008630100081F
:10013000DFF810D000F030F800480047510C0008FC
:10014000AFF300802004002006488047064800479F
:10015000FEE7FEE7FEE7FEE7FEE7FEE7FEE7FEE777
:10016000FEE7FEE7610600083101000830B50B46E6
:10017000014600202022012409E021FA02F59D42D7
:1001800005D303FA02F5491B04FA02F52844151EAB
:10019000A2F10102F1DC30BD064C074D06E0E0683B
:1001A00040F0010394E8070098471034AC42F6D3BE
:1001B000FFF7C2FFA00D0008C00D000810B54FF4F6
:1001C0000871084800F01BF8012804D1054800F028
:1001D00012F8054908804FF40871024800F006F84B
:1001E00010BD0000002801401800002000220A1263
:1001F000D343036070470146C86C80B2704770B546
:1002000002460020002300240B125568CEB205EAF6
:10021000060415681D4015B10CB1012000E0002056
:1002200070BD00BFFEE7704701B502E00098401EB8
:10023000009000980028F9D108BD000010B50120F9
:1002400000F024F830B12021034800F0BEF801206E
:1002500000F016F810BD0000000C014010B54FF47E
:10026000005000F013F838B10121044800F0ADF857
:100270004FF4005000F004F810BD0000000C0140E5
:100280000149086070470000140401400146002045
:100290000022074B1B6803EA0102054B14331B685D
:1002A0000B4013B10AB1012000E0002070470000AC
:1002B000000401402DE9F0410246002500260020FF
:1002C00000230024002791F803C00CF00F0591F8DB
:1002D00003C00CF0100CBCF1000F03D091F802C069
:1002E0004CEA050591F800C0BCF1000F31D014684C
:1002F00000202BE04FF0010C0CFA00F3B1F800C025
:100300000CEA03069E4220D183004FF00F0C0CFA3A
:1003100003F7BC4305FA03FC4CEA040491F803C05C
:10032000BCF1280F06D14FF0010C0CFA00FCC2F80A
:1003300014C00AE091F803C0BCF1480F05D14FF09A
:10034000010C0CFA00FCC2F810C0401C0828D1D3E4
:100350001460B1F800C0BCF1FF0F34DD5468002018
:100360002EE000F1080C4FF0010808FA0CF3B1F888
:1003700000C00CEA03069E4221D183004FF00F0C0F
:100380000CFA03F7BC4305FA03FC4CEA040491F8A9
:1003900003C0BCF1280F05D100F1080C08FA0CF8D5
:1003A000C2F8148091F803C0BCF1480F07D100F1E6
:1003B000080C4FF0010808FA0CF8C2F81080401C35
:1003C0000828CED35460BDE8F081C2684A40C260BC
:1003D000704700BFFEE700000448006820B10348F2
:1003E0000068401E014908607047000014000020AA
:1003F00000BFFEE77047704729B1064AD269024341
:10040000044BDA6104E0034AD2698243014BDA61AA
:10041000704700000010024029B1064A9269024369
:10042000044B9A6104E0034A92698243014B9A614A
:10043000704700000010024030B500210022002467
:1004400000232D4D6D6805F00C0121B1042905D064
:10045000082923D105E0294D056022E0274D0560DC
:100460001FE0254D6D6805F47012234D6D6805F48D
:100470008034022505EB92421CB9214D554305609D
:100480000BE01D4D6D6805F400351DB11C4D554345
:10049000056002E0194D5543056002E0174D056007
:1004A00000BF00BF144D6D6805F0F0010909154D3E
:1004B0006B5C0568DD4045600F4D6D6805F4E061DB
:1004C000090A104D6B5C4568DD4085600A4D6D681A
:1004D00005F46051C90A0B4D6B5C4568DD40C56091
:1004E000054D6D6805F44041890B074D6B5CC5688F
:1004F000B5FBF3F5056130BD0010024000127A0033
:1005000000093D000000002010000020704710B5D9
:1005100000F002F810BD00000CB500200190009022
:100520003348006840F480303149086000BF3048EB
:10053000006800F4003000900198401C0190009881
:1005400018B90198B0F5A06FF1D12948006800F4FE
:10055000003010B10120009001E0002000900098D0
:10056000012843D12348006840F010002149086069
:100570000846006820F0030008600846006840F064
:10058000020008601A4840681949486008464068F7
:1005900048600846406840F480604860084640680B
:1005A00020F47C1048600846406840F4E810486039
:1005B0000846006840F08070086000BF0C48006882
:1005C00000F000700028F9D00948406820F00300CE
:1005D000074948600846406840F00200486000BF94
:1005E0000348406800F00C000828F9D10CBD000059
:1005F00000100240002002402DE9F04105460E4661
:100600001446642C00DD6424A88D401C60436421E2
:1006100090FBF1F087B2012E06D0022E09D0032EF6
:100620000CD0042E14D10EE03946284600F00AF909
:100630000FE03946284600F007F90AE03946284617
:1006400000F004F905E03946284600F001F900E021
:1006500000BF00BFBDE8F08110B5FFF7BDFE10BDC3
:1006600010B51348006840F00100114908600846C1
:100670004068104908400E494860084600680E4925
:1006800008400B4908600846006820F48020086094
:100690000846406820F4FE0048604FF41F00886060
:1006A000FFF735FF4FF000600449086010BD0000FF
:1006B000001002400000FFF8FFFFF6FE08ED00E02A
:1006C00021B1028842F08002028004E002884FF6E5
:1006D0007F731A400280704721B1028842F0010204
:1006E000028004E002884FF6FE731A4002807047D1
:1006F00008B50120ADF8000018208DF80300032094
:100700008DF8020069460248FFF7D4FD08BD0000DD
:10071000000C014070B5002400220023058C4FF628
:10072000FF6635400584028C8388848B4FF68F7575
:100730002C404FF6FC752C400D882C434FF6FF558E
:100740002A400D894FF6FF7606EA05252A434D8893
:1007500006EA05252A43154DA84202D0144DA842A9
:100760001DD14FF2FF752A404D894FF6FF7606EAFC
:1007700005252A434FF6FF352A408D8806EA0525D0
:100780002A434EF6FF752B404DF6FF752B408D89A1
:1007900006EA05152B43CD8906EA05152B43838010
:1007A0008483CD888587028470BD0000002C0140C1
:1007B000003401400A460021818B4FF6F77319403F
:1007C000114381837047000000B587B040F2E730E5
:1007D000ADF814004720ADF810000020ADF8160069
:1007E000ADF8120004A9114800F036F86020ADF809
:1007F00000000120ADF802004FF4FA70ADF80600D9
:100800000220ADF8080069460848FFF783FF082179
:100810000648FFF7CFFF01210448FFF751FF0121F0
:100820000248FFF759FF07B000BD00000004004078
:1008300010B501210220FFF7DFFD01210820FFF79D
:10084000EBFD10BD81867047018770478187704737
:10085000A0F8401070470000002202881D4B98420B
:100860000ED01D4B98420BD0B0F1804F08D01B4BDF
:10087000984205D01A4B984202D01A4B984204D1A4
:100880004FF68F731A404B881A43174B984207D084
:10089000164B984204D04FF6FF431A40CB881A43B8
:1008A00002808B8883850B8803850A4B98420BD086
:1008B000094B984208D00E4B984205D00D4B9842F8
:1008C00002D00D4B984201D10B7A0386012383821B
:1008D00070470000002C014000340140000400403B
:1008E00000080040000C00400010004000140040D0
:1008F00000400140004401400048014000B585B07F
:1009000001218803FFF788FD01210420FFF784FD02
:100910004FF4E13001900020ADF810000C20ADF84C
:100920000E000020ADF80800ADF80C00ADF80A008C
:1009300001A9114800F03EF84FF40070ADF8000036
:1009400003208DF8020018208DF8030069460B483B
:10095000FFF7B0FC4FF48060ADF8000004208DF884
:10096000030069460548FFF7A5FC0121024800F095
:1009700007F805B000BD0000003801400008014044
:1009800021B1828942F40052828104E082894DF6CD
:10099000FF731A408281704702460020B1F5007F44
:1009A00000D100BF13880B400BB1012000E00020F4
:1009B000704700002DE9F04786B005460E4600243A
:1009C000A24600BFA1460027B08900B100BF2F4654
:1009D0002C8A4CF6FF700440F08804432C82AC89CA
:1009E0004EF6F3100440B0883189084371890843FA
:1009F0000443AC81AC8A4FF6FF400440B089044305
:100A0000AC8201A8FFF718FD1F48874202D1DDF82C
:100A100010A001E0DDF80CA0A88900F4004040B16E
:100A20000AEBCA0000EB0A1031684900B0FBF1F88C
:100A300007E00AEBCA0000EB0A1031688900B0FB3E
:100A4000F1F86420B8FBF0F004012009642101FBF7
:100A50001089A88900F4004040B1322000EBC900A1
:100A6000B0FBF1F000F00700044308E0322000EB97
:100A700009106421B0FBF1F000F00F0004432C8159
:100A800006B0BDE8F087000000380140C1F308025D
:100A90008280704700BFFEE70FB4054B10B503A975
:100AA000044A029800F018F810BC5DF814FB00002E
:100AB0002D0C00081C00002002E008C8121F08C10D
:100AC000002AFAD170477047002001E001C1121FCF
:100AD000002AFBD1704700002DE9FF4F89B09B46EB
:100AE0000446002506E025280BD05A460B9990476E
:100AF000641C6D1C20780028F5D10DB02846BDE897
:100B0000F08F0027B8460122474900E0074314F858
:100B1000013F203B02FA03F00842F7D120782E284B
:100B200019D114F8010F47F004072A280ED06FF0EE
:100B30002F022078A0F1300109290CD808EB880198
:100B400002EB410100EB0108641CF2E70A98641C07
:100B500050F8048B0A9020780028CED0642808D062
:100B6000692806D075281ED05A460B9990476D1CEF
:100B700058E00A994FF00A0901C90A91002802DADF
:100B800040422D2102E0390504D52B218DF820109B
:100B9000012103E0F90704D02021F7E78A4608AED7
:100BA0000DE00021FAE70A994FF00A0901C90A91FC
:100BB000F7E74946FFF7DAFA303106F8011D002859
:100BC000F7D1ADEB060000F12009780701D44FF012
:100BD0000108C84502DDA8EB090000E000208046BE
:100BE000002706E008A85A46C05D0B9990476D1C87
:100BF0007F1C5745F6DB04E030205A460B9990479E
:100C00006D1CB8F10001A8F10108F5DC05E016F84B
:100C1000010B5A460B9990476D1CB9F10001A9F1DF
:100C20000109F4DC641C65E70928010070B504467D
:100C30000D46A1B20548FFF729FF00BF80210348F8
:100C4000FFF7AAFE0028F9D0204670BD0038014009
:100C5000FFF7EEFDFFF74CFDFFF7B6FDFFF74EFE89
:100C600020A0FFF719FF00BF6FF07F40FFF7DCFA0D
:100C7000142203212248FFF7BFFC22A0FFF70CFF3C
:100C80006FF07F40FFF7D0FA3C2203211C48FFF7AA
:100C9000B3FC24A0FFF700FF6FF07F40FFF7C4FA1A
:100CA000002203211648FFF7A7FC26A0FFF7F4FE59
:100CB0006FF07F40FFF7B8FA502203211048FFF78A
:100CC0009BFC27A0FFF7E8FE6FF07F40FFF7ACFA30
:100CD000642203210A48FFF78FFC29A0FFF7DCFEFE
:100CE000C2E7000050574D20647574792063796322
:100CF0006C6520746573742073746172740D0A00DE
:100D00000004004054494D335F43483220647574F9
:100D100079206379636C65203D20323025250D0AEA
:100D20000000000054494D335F434832206475741D
:100D300079206379636C65203D20363025250D0AC6
:100D40000000000054494D335F43483220647574FD
:100D500079206379636C65203D203025250D0A00DC
:100D600054494D335F434832206475747920637968
:100D7000636C65203D20383025250D0A00000000F9
:100D800054494D335F434832206475747920637948
:100D9000636C65203D2031303025250D0A000000B0
:100DA000C00D00080000002020000000B80A000864
:100DB000E00D00082000002000040000C80A000820
:100DC00000000000010203040102030406070809F1
:100DD00002040608000000000000000000000000FF
:0400000508000149A5
:00000001FF
